{"contracts/StorageComparison.sol":{"StorageComparison":{"abi":[{"inputs":[],"name":"computeStack","outputs":[{"internalType":"uint256","name":"","type":"uint256"}],"stateMutability":"pure","type":"function"},{"inputs":[],"name":"storedValue","outputs":[{"internalType":"uint256","name":"","type":"uint256"}],"stateMutability":"view","type":"function"},{"inputs":[{"internalType":"uint256[]","name":"input","type":"uint256[]"}],"name":"sumCalldata","outputs":[{"internalType":"uint256","name":"","type":"uint256"}],"stateMutability":"pure","type":"function"},{"inputs":[{"internalType":"uint256[]","name":"input","type":"uint256[]"}],"name":"sumMemory","outputs":[{"internalType":"uint256","name":"","type":"uint256"}],"stateMutability":"pure","type":"function"},{"inputs":[{"internalType":"uint256","name":"_value","type":"uint256"}],"name":"writeToStorage","outputs":[],"stateMutability":"nonpayable","type":"function"}],"evm":{"bytecode":{"linkReferences":{},"object":"608060405234801561001057600080fd5b506105e3806100206000396000f3fe608060405234801561001057600080fd5b50600436106100575760003560e01c806313201b5d1461005c57806323345c721461008c5780635accf8d4146100a85780636d619daa146100c65780637bc2e5ac146100e4575b600080fd5b6100766004803603810190610071919061038b565b610114565b60405161008391906103e3565b60405180910390f35b6100a660048036038101906100a191906103fe565b610168565b005b6100b0610172565b6040516100bd91906103e3565b60405180910390f35b6100ce61018c565b6040516100db91906103e3565b60405180910390f35b6100fe60048036038101906100f99190610486565b610192565b60405161010b91906103e3565b60405180910390f35b60008060005b835181101561015e57838181518110610136576101356104d3565b5b6020026020010151826101499190610531565b9150808061015690610565565b91505061011a565b5080915050919050565b8060008190555050565b60008060079050600060059050600a818302019250505090565b60005481565b60008060005b848490508110156101dd578484828181106101b6576101b56104d3565b5b90506020020135826101c89190610531565b915080806101d590610565565b915050610198565b508091505092915050565b6000604051905090565b600080fd5b600080fd5b600080fd5b6000601f19601f8301169050919050565b7f4e487b7100000000000000000000000000000000000000000000000000000000600052604160045260246000fd5b61024a82610201565b810181811067ffffffffffffffff8211171561026957610268610212565b5b80604052505050565b600061027c6101e8565b90506102888282610241565b919050565b600067ffffffffffffffff8211156102a8576102a7610212565b5b602082029050602081019050919050565b600080fd5b6000819050919050565b6102d1816102be565b81146102dc57600080fd5b50565b6000813590506102ee816102c8565b92915050565b60006103076103028461028d565b610272565b9050808382526020820190506020840283018581111561032a576103296102b9565b5b835b81811015610353578061033f88826102df565b84526020840193505060208101905061032c565b5050509392505050565b600082601f830112610372576103716101fc565b5b81356103828482602086016102f4565b91505092915050565b6000602082840312156103a1576103a06101f2565b5b600082013567ffffffffffffffff8111156103bf576103be6101f7565b5b6103cb8482850161035d565b91505092915050565b6103dd816102be565b82525050565b60006020820190506103f860008301846103d4565b92915050565b600060208284031215610414576104136101f2565b5b6000610422848285016102df565b91505092915050565b600080fd5b60008083601f840112610446576104456101fc565b5b8235905067ffffffffffffffff8111156104635761046261042b565b5b60208301915083602082028301111561047f5761047e6102b9565b5b9250929050565b6000806020838503121561049d5761049c6101f2565b5b600083013567ffffffffffffffff8111156104bb576104ba6101f7565b5b6104c785828601610430565b92509250509250929050565b7f4e487b7100000000000000000000000000000000000000000000000000000000600052603260045260246000fd5b7f4e487b7100000000000000000000000000000000000000000000000000000000600052601160045260246000fd5b600061053c826102be565b9150610547836102be565b925082820190508082111561055f5761055e610502565b5b92915050565b6000610570826102be565b91507fffffffffffffffffffffffffffffffffffffffffffffffffffffffffffffffff82036105a2576105a1610502565b5b60018201905091905056fea26469706673582212201aa1dd5bf689929b474d4e4cf2d974cb2de539619c3a99b061073f5126d63c3064736f6c63430008140033","opcodes":"PUSH1 0x80 PUSH1 0x40 MSTORE CALLVALUE DUP1 ISZERO PUSH2 0x10 JUMPI PUSH1 0x0 DUP1 REVERT JUMPDEST POP PUSH2 0x5E3 DUP1 PUSH2 0x20 PUSH1 0x0 CODECOPY PUSH1 0x0 RETURN INVALID PUSH1 0x80 PUSH1 0x40 MSTORE CALLVALUE DUP1 ISZERO PUSH2 0x10 JUMPI PUSH1 0x0 DUP1 REVERT JUMPDEST POP PUSH1 0x4 CALLDATASIZE LT PUSH2 0x57 JUMPI PUSH1 0x0 CALLDATALOAD PUSH1 0xE0 SHR DUP1 PUSH4 0x13201B5D EQ PUSH2 0x5C JUMPI DUP1 PUSH4 0x23345C72 EQ PUSH2 0x8C JUMPI DUP1 PUSH4 0x5ACCF8D4 EQ PUSH2 0xA8 JUMPI DUP1 PUSH4 0x6D619DAA EQ PUSH2 0xC6 JUMPI DUP1 PUSH4 0x7BC2E5AC EQ PUSH2 0xE4 JUMPI JUMPDEST PUSH1 0x0 DUP1 REVERT JUMPDEST PUSH2 0x76 PUSH1 0x4 DUP1 CALLDATASIZE SUB DUP2 ADD SWAP1 PUSH2 0x71 SWAP2 SWAP1 PUSH2 0x38B JUMP JUMPDEST PUSH2 0x114 JUMP JUMPDEST PUSH1 0x40 MLOAD PUSH2 0x83 SWAP2 SWAP1 PUSH2 0x3E3 JUMP JUMPDEST PUSH1 0x40 MLOAD DUP1 SWAP2 SUB SWAP1 RETURN JUMPDEST PUSH2 0xA6 PUSH1 0x4 DUP1 CALLDATASIZE SUB DUP2 ADD SWAP1 PUSH2 0xA1 SWAP2 SWAP1 PUSH2 0x3FE JUMP JUMPDEST PUSH2 0x168 JUMP JUMPDEST STOP JUMPDEST PUSH2 0xB0 PUSH2 0x172 JUMP JUMPDEST PUSH1 0x40 MLOAD PUSH2 0xBD SWAP2 SWAP1 PUSH2 0x3E3 JUMP JUMPDEST PUSH1 0x40 MLOAD DUP1 SWAP2 SUB SWAP1 RETURN JUMPDEST PUSH2 0xCE PUSH2 0x18C JUMP JUMPDEST PUSH1 0x40 MLOAD PUSH2 0xDB SWAP2 SWAP1 PUSH2 0x3E3 JUMP JUMPDEST PUSH1 0x40 MLOAD DUP1 SWAP2 SUB SWAP1 RETURN JUMPDEST PUSH2 0xFE PUSH1 0x4 DUP1 CALLDATASIZE SUB DUP2 ADD SWAP1 PUSH2 0xF9 SWAP2 SWAP1 PUSH2 0x486 JUMP JUMPDEST PUSH2 0x192 JUMP JUMPDEST PUSH1 0x40 MLOAD PUSH2 0x10B SWAP2 SWAP1 PUSH2 0x3E3 JUMP JUMPDEST PUSH1 0x40 MLOAD DUP1 SWAP2 SUB SWAP1 RETURN JUMPDEST PUSH1 0x0 DUP1 PUSH1 0x0 JUMPDEST DUP4 MLOAD DUP2 LT ISZERO PUSH2 0x15E JUMPI DUP4 DUP2 DUP2 MLOAD DUP2 LT PUSH2 0x136 JUMPI PUSH2 0x135 PUSH2 0x4D3 JUMP JUMPDEST JUMPDEST PUSH1 0x20 MUL PUSH1 0x20 ADD ADD MLOAD DUP3 PUSH2 0x149 SWAP2 SWAP1 PUSH2 0x531 JUMP JUMPDEST SWAP2 POP DUP1 DUP1 PUSH2 0x156 SWAP1 PUSH2 0x565 JUMP JUMPDEST SWAP2 POP POP PUSH2 0x11A JUMP JUMPDEST POP DUP1 SWAP2 POP POP SWAP2 SWAP1 POP JUMP JUMPDEST DUP1 PUSH1 0x0 DUP2 SWAP1 SSTORE POP POP JUMP JUMPDEST PUSH1 0x0 DUP1 PUSH1 0x7 SWAP1 POP PUSH1 0x0 PUSH1 0x5 SWAP1 POP PUSH1 0xA DUP2 DUP4 MUL ADD SWAP3 POP POP POP SWAP1 JUMP JUMPDEST PUSH1 0x0 SLOAD DUP2 JUMP JUMPDEST PUSH1 0x0 DUP1 PUSH1 0x0 JUMPDEST DUP5 DUP5 SWAP1 POP DUP2 LT ISZERO PUSH2 0x1DD JUMPI DUP5 DUP5 DUP3 DUP2 DUP2 LT PUSH2 0x1B6 JUMPI PUSH2 0x1B5 PUSH2 0x4D3 JUMP JUMPDEST JUMPDEST SWAP1 POP PUSH1 0x20 MUL ADD CALLDATALOAD DUP3 PUSH2 0x1C8 SWAP2 SWAP1 PUSH2 0x531 JUMP JUMPDEST SWAP2 POP DUP1 DUP1 PUSH2 0x1D5 SWAP1 PUSH2 0x565 JUMP JUMPDEST SWAP2 POP POP PUSH2 0x198 JUMP JUMPDEST POP DUP1 SWAP2 POP POP SWAP3 SWAP2 POP POP JUMP JUMPDEST PUSH1 0x0 PUSH1 0x40 MLOAD SWAP1 POP SWAP1 JUMP JUMPDEST PUSH1 0x0 DUP1 REVERT JUMPDEST PUSH1 0x0 DUP1 REVERT JUMPDEST PUSH1 0x0 DUP1 REVERT JUMPDEST PUSH1 0x0 PUSH1 0x1F NOT PUSH1 0x1F DUP4 ADD AND SWAP1 POP SWAP2 SWAP1 POP JUMP JUMPDEST PUSH32 0x4E487B7100000000000000000000000000000000000000000000000000000000 PUSH1 0x0 MSTORE PUSH1 0x41 PUSH1 0x4 MSTORE PUSH1 0x24 PUSH1 0x0 REVERT JUMPDEST PUSH2 0x24A DUP3 PUSH2 0x201 JUMP JUMPDEST DUP2 ADD DUP2 DUP2 LT PUSH8 0xFFFFFFFFFFFFFFFF DUP3 GT OR ISZERO PUSH2 0x269 JUMPI PUSH2 0x268 PUSH2 0x212 JUMP JUMPDEST JUMPDEST DUP1 PUSH1 0x40 MSTORE POP POP POP JUMP JUMPDEST PUSH1 0x0 PUSH2 0x27C PUSH2 0x1E8 JUMP JUMPDEST SWAP1 POP PUSH2 0x288 DUP3 DUP3 PUSH2 0x241 JUMP JUMPDEST SWAP2 SWAP1 POP JUMP JUMPDEST PUSH1 0x0 PUSH8 0xFFFFFFFFFFFFFFFF DUP3 GT ISZERO PUSH2 0x2A8 JUMPI PUSH2 0x2A7 PUSH2 0x212 JUMP JUMPDEST JUMPDEST PUSH1 0x20 DUP3 MUL SWAP1 POP PUSH1 0x20 DUP2 ADD SWAP1 POP SWAP2 SWAP1 POP JUMP JUMPDEST PUSH1 0x0 DUP1 REVERT JUMPDEST PUSH1 0x0 DUP2 SWAP1 POP SWAP2 SWAP1 POP JUMP JUMPDEST PUSH2 0x2D1 DUP2 PUSH2 0x2BE JUMP JUMPDEST DUP2 EQ PUSH2 0x2DC JUMPI PUSH1 0x0 DUP1 REVERT JUMPDEST POP JUMP JUMPDEST PUSH1 0x0 DUP2 CALLDATALOAD SWAP1 POP PUSH2 0x2EE DUP2 PUSH2 0x2C8 JUMP JUMPDEST SWAP3 SWAP2 POP POP JUMP JUMPDEST PUSH1 0x0 PUSH2 0x307 PUSH2 0x302 DUP5 PUSH2 0x28D JUMP JUMPDEST PUSH2 0x272 JUMP JUMPDEST SWAP1 POP DUP1 DUP4 DUP3 MSTORE PUSH1 0x20 DUP3 ADD SWAP1 POP PUSH1 0x20 DUP5 MUL DUP4 ADD DUP6 DUP2 GT ISZERO PUSH2 0x32A JUMPI PUSH2 0x329 PUSH2 0x2B9 JUMP JUMPDEST JUMPDEST DUP4 JUMPDEST DUP2 DUP2 LT ISZERO PUSH2 0x353 JUMPI DUP1 PUSH2 0x33F DUP9 DUP3 PUSH2 0x2DF JUMP JUMPDEST DUP5 MSTORE PUSH1 0x20 DUP5 ADD SWAP4 POP POP PUSH1 0x20 DUP2 ADD SWAP1 POP PUSH2 0x32C JUMP JUMPDEST POP POP POP SWAP4 SWAP3 POP POP POP JUMP JUMPDEST PUSH1 0x0 DUP3 PUSH1 0x1F DUP4 ADD SLT PUSH2 0x372 JUMPI PUSH2 0x371 PUSH2 0x1FC JUMP JUMPDEST JUMPDEST DUP2 CALLDATALOAD PUSH2 0x382 DUP5 DUP3 PUSH1 0x20 DUP7 ADD PUSH2 0x2F4 JUMP JUMPDEST SWAP2 POP POP SWAP3 SWAP2 POP POP JUMP JUMPDEST PUSH1 0x0 PUSH1 0x20 DUP3 DUP5 SUB SLT ISZERO PUSH2 0x3A1 JUMPI PUSH2 0x3A0 PUSH2 0x1F2 JUMP JUMPDEST JUMPDEST PUSH1 0x0 DUP3 ADD CALLDATALOAD PUSH8 0xFFFFFFFFFFFFFFFF DUP2 GT ISZERO PUSH2 0x3BF JUMPI PUSH2 0x3BE PUSH2 0x1F7 JUMP JUMPDEST JUMPDEST PUSH2 0x3CB DUP5 DUP3 DUP6 ADD PUSH2 0x35D JUMP JUMPDEST SWAP2 POP POP SWAP3 SWAP2 POP POP JUMP JUMPDEST PUSH2 0x3DD DUP2 PUSH2 0x2BE JUMP JUMPDEST DUP3 MSTORE POP POP JUMP JUMPDEST PUSH1 0x0 PUSH1 0x20 DUP3 ADD SWAP1 POP PUSH2 0x3F8 PUSH1 0x0 DUP4 ADD DUP5 PUSH2 0x3D4 JUMP JUMPDEST SWAP3 SWAP2 POP POP JUMP JUMPDEST PUSH1 0x0 PUSH1 0x20 DUP3 DUP5 SUB SLT ISZERO PUSH2 0x414 JUMPI PUSH2 0x413 PUSH2 0x1F2 JUMP JUMPDEST JUMPDEST PUSH1 0x0 PUSH2 0x422 DUP5 DUP3 DUP6 ADD PUSH2 0x2DF JUMP JUMPDEST SWAP2 POP POP SWAP3 SWAP2 POP POP JUMP JUMPDEST PUSH1 0x0 DUP1 REVERT JUMPDEST PUSH1 0x0 DUP1 DUP4 PUSH1 0x1F DUP5 ADD SLT PUSH2 0x446 JUMPI PUSH2 0x445 PUSH2 0x1FC JUMP JUMPDEST JUMPDEST DUP3 CALLDATALOAD SWAP1 POP PUSH8 0xFFFFFFFFFFFFFFFF DUP2 GT ISZERO PUSH2 0x463 JUMPI PUSH2 0x462 PUSH2 0x42B JUMP JUMPDEST JUMPDEST PUSH1 0x20 DUP4 ADD SWAP2 POP DUP4 PUSH1 0x20 DUP3 MUL DUP4 ADD GT ISZERO PUSH2 0x47F JUMPI PUSH2 0x47E PUSH2 0x2B9 JUMP JUMPDEST JUMPDEST SWAP3 POP SWAP3 SWAP1 POP JUMP JUMPDEST PUSH1 0x0 DUP1 PUSH1 0x20 DUP4 DUP6 SUB SLT ISZERO PUSH2 0x49D JUMPI PUSH2 0x49C PUSH2 0x1F2 JUMP JUMPDEST JUMPDEST PUSH1 0x0 DUP4 ADD CALLDATALOAD PUSH8 0xFFFFFFFFFFFFFFFF DUP2 GT ISZERO PUSH2 0x4BB JUMPI PUSH2 0x4BA PUSH2 0x1F7 JUMP JUMPDEST JUMPDEST PUSH2 0x4C7 DUP6 DUP3 DUP7 ADD PUSH2 0x430 JUMP JUMPDEST SWAP3 POP SWAP3 POP POP SWAP3 POP SWAP3 SWAP1 POP JUMP JUMPDEST PUSH32 0x4E487B7100000000000000000000000000000000000000000000000000000000 PUSH1 0x0 MSTORE PUSH1 0x32 PUSH1 0x4 MSTORE PUSH1 0x24 PUSH1 0x0 REVERT JUMPDEST PUSH32 0x4E487B7100000000000000000000000000000000000000000000000000000000 PUSH1 0x0 MSTORE PUSH1 0x11 PUSH1 0x4 MSTORE PUSH1 0x24 PUSH1 0x0 REVERT JUMPDEST PUSH1 0x0 PUSH2 0x53C DUP3 PUSH2 0x2BE JUMP JUMPDEST SWAP2 POP PUSH2 0x547 DUP4 PUSH2 0x2BE JUMP JUMPDEST SWAP3 POP DUP3 DUP3 ADD SWAP1 POP DUP1 DUP3 GT ISZERO PUSH2 0x55F JUMPI PUSH2 0x55E PUSH2 0x502 JUMP JUMPDEST JUMPDEST SWAP3 SWAP2 POP POP JUMP JUMPDEST PUSH1 0x0 PUSH2 0x570 DUP3 PUSH2 0x2BE JUMP JUMPDEST SWAP2 POP PUSH32 0xFFFFFFFFFFFFFFFFFFFFFFFFFFFFFFFFFFFFFFFFFFFFFFFFFFFFFFFFFFFFFFFF DUP3 SUB PUSH2 0x5A2 JUMPI PUSH2 0x5A1 PUSH2 0x502 JUMP JUMPDEST JUMPDEST PUSH1 0x1 DUP3 ADD SWAP1 POP SWAP2 SWAP1 POP JUMP INVALID LOG2 PUSH5 0x6970667358 0x22 SLT KECCAK256 BYTE LOG1 0xDD JUMPDEST 0xF6 DUP10 SWAP3 SWAP12 SELFBALANCE 0x4D 0x4E 0x4C CALLCODE 0xD9 PUSH21 0xCB2DE539619C3A99B061073F5126D63C3064736F6C PUSH4 0x43000814 STOP CALLER "},"methodIdentifiers":{"computeStack()":"5accf8d4","storedValue()":"6d619daa","sumCalldata(uint256[])":"7bc2e5ac","sumMemory(uint256[])":"13201b5d","writeToStorage(uint256)":"23345c72"}}}}}