{
  "_format": "hh-sol-artifact-1",
  "contractName": "StorageOptimized",
  "sourceName": "contracts/StorageOptimized.sol",
  "abi": [
    {
      "inputs": [],
      "name": "getStoredValue",
      "outputs": [
        {
          "internalType": "uint256",
          "name": "",
          "type": "uint256"
        }
      ],
      "stateMutability": "view",
      "type": "function"
    },
    {
      "inputs": [
        {
          "internalType": "uint256",
          "name": "_value",
          "type": "uint256"
        }
      ],
      "name": "setStoredValue",
      "outputs": [],
      "stateMutability": "nonpayable",
      "type": "function"
    },
    {
      "inputs": [],
      "name": "storedValue",
      "outputs": [
        {
          "internalType": "uint256",
          "name": "",
          "type": "uint256"
        }
      ],
      "stateMutability": "view",
      "type": "function"
    },
    {
      "inputs": [
        {
          "internalType": "uint256[]",
          "name": "input",
          "type": "uint256[]"
        }
      ],
      "name": "useCalldata",
      "outputs": [
        {
          "internalType": "uint256",
          "name": "",
          "type": "uint256"
        }
      ],
      "stateMutability": "pure",
      "type": "function"
    },
    {
      "inputs": [
        {
          "internalType": "uint256[]",
          "name": "input",
          "type": "uint256[]"
        }
      ],
      "name": "useMemory",
      "outputs": [
        {
          "internalType": "uint256",
          "name": "",
          "type": "uint256"
        }
      ],
      "stateMutability": "pure",
      "type": "function"
    },
    {
      "inputs": [],
      "name": "useStack",
      "outputs": [
        {
          "internalType": "uint256",
          "name": "",
          "type": "uint256"
        }
      ],
      "stateMutability": "pure",
      "type": "function"
    }
  ],
  "bytecode": "0x608060405234801561001057600080fd5b50610507806100206000396000f3fe608060405234801561001057600080fd5b50600436106100625760003560e01c80630d336a21146100675780633295425d1461008557806366835c4d146100a15780636d619daa146100bf578063c92fa517146100dd578063e33c702f1461010d575b600080fd5b61006f61013d565b60405161007c91906101d0565b60405180910390f35b61009f600480360381019061009a919061022b565b610146565b005b6100a9610150565b6040516100b691906101d0565b60405180910390f35b6100c7610167565b6040516100d491906101d0565b60405180910390f35b6100f760048036038101906100f291906102bd565b61016d565b60405161010491906101d0565b60405180910390f35b61012760048036038101906101229190610459565b610192565b60405161013491906101d0565b60405180910390f35b60008054905090565b8060008190555050565b600080600590506000600390508082019250505090565b60005481565b600082826000818110610183576101826104a2565b5b90506020020135905092915050565b6000816000815181106101a8576101a76104a2565b5b60200260200101519050919050565b6000819050919050565b6101ca816101b7565b82525050565b60006020820190506101e560008301846101c1565b92915050565b6000604051905090565b600080fd5b600080fd5b610208816101b7565b811461021357600080fd5b50565b600081359050610225816101ff565b92915050565b600060208284031215610241576102406101f5565b5b600061024f84828501610216565b91505092915050565b600080fd5b600080fd5b600080fd5b60008083601f84011261027d5761027c610258565b5b8235905067ffffffffffffffff81111561029a5761029961025d565b5b6020830191508360208202830111156102b6576102b5610262565b5b9250929050565b600080602083850312156102d4576102d36101f5565b5b600083013567ffffffffffffffff8111156102f2576102f16101fa565b5b6102fe85828601610267565b92509250509250929050565b6000601f19601f8301169050919050565b7f4e487b7100000000000000000000000000000000000000000000000000000000600052604160045260246000fd5b6103538261030a565b810181811067ffffffffffffffff821117156103725761037161031b565b5b80604052505050565b60006103856101eb565b9050610391828261034a565b919050565b600067ffffffffffffffff8211156103b1576103b061031b565b5b602082029050602081019050919050565b60006103d56103d084610396565b61037b565b905080838252602082019050602084028301858111156103f8576103f7610262565b5b835b81811015610421578061040d8882610216565b8452602084019350506020810190506103fa565b5050509392505050565b600082601f8301126104405761043f610258565b5b81356104508482602086016103c2565b91505092915050565b60006020828403121561046f5761046e6101f5565b5b600082013567ffffffffffffffff81111561048d5761048c6101fa565b5b6104998482850161042b565b91505092915050565b7f4e487b7100000000000000000000000000000000000000000000000000000000600052603260045260246000fdfea2646970667358221220f2feb9836bcee3493096126adaff547870a6b37f03e2f9add46d073262d6230964736f6c63430008140033",
  "linkReferences": {},
  "deployedLinkReferences": {}
}