{
  "_format": "hh-sol-artifact-1",
  "contractName": "StorageComparison",
  "sourceName": "contracts/StorageComparison.sol",
  "abi": [
    {
      "inputs": [],
      "name": "computeStack",
      "outputs": [
        {
          "internalType": "uint256",
          "name": "",
          "type": "uint256"
        }
      ],
      "stateMutability": "pure",
      "type": "function"
    },
    {
      "inputs": [],
      "name": "storedValue",
      "outputs": [
        {
          "internalType": "uint256",
          "name": "",
          "type": "uint256"
        }
      ],
      "stateMutability": "view",
      "type": "function"
    },
    {
      "inputs": [
        {
          "internalType": "uint256[]",
          "name": "input",
          "type": "uint256[]"
        }
      ],
      "name": "sumCalldata",
      "outputs": [
        {
          "internalType": "uint256",
          "name": "",
          "type": "uint256"
        }
      ],
      "stateMutability": "pure",
      "type": "function"
    },
    {
      "inputs": [
        {
          "internalType": "uint256[]",
          "name": "input",
          "type": "uint256[]"
        }
      ],
      "name": "sumMemory",
      "outputs": [
        {
          "internalType": "uint256",
          "name": "",
          "type": "uint256"
        }
      ],
      "stateMutability": "pure",
      "type": "function"
    },
    {
      "inputs": [
        {
          "internalType": "uint256",
          "name": "_value",
          "type": "uint256"
        }
      ],
      "name": "writeToStorage",
      "outputs": [],
      "stateMutability": "nonpayable",
      "type": "function"
    }
  ],
  "bytecode": "0x608060405234801561001057600080fd5b506105e3806100206000396000f3fe608060405234801561001057600080fd5b50600436106100575760003560e01c806313201b5d1461005c57806323345c721461008c5780635accf8d4146100a85780636d619daa146100c65780637bc2e5ac146100e4575b600080fd5b6100766004803603810190610071919061038b565b610114565b60405161008391906103e3565b60405180910390f35b6100a660048036038101906100a191906103fe565b610168565b005b6100b0610172565b6040516100bd91906103e3565b60405180910390f35b6100ce61018c565b6040516100db91906103e3565b60405180910390f35b6100fe60048036038101906100f99190610486565b610192565b60405161010b91906103e3565b60405180910390f35b60008060005b835181101561015e57838181518110610136576101356104d3565b5b6020026020010151826101499190610531565b9150808061015690610565565b91505061011a565b5080915050919050565b8060008190555050565b60008060079050600060059050600a818302019250505090565b60005481565b60008060005b848490508110156101dd578484828181106101b6576101b56104d3565b5b90506020020135826101c89190610531565b915080806101d590610565565b915050610198565b508091505092915050565b6000604051905090565b600080fd5b600080fd5b600080fd5b6000601f19601f8301169050919050565b7f4e487b7100000000000000000000000000000000000000000000000000000000600052604160045260246000fd5b61024a82610201565b810181811067ffffffffffffffff8211171561026957610268610212565b5b80604052505050565b600061027c6101e8565b90506102888282610241565b919050565b600067ffffffffffffffff8211156102a8576102a7610212565b5b602082029050602081019050919050565b600080fd5b6000819050919050565b6102d1816102be565b81146102dc57600080fd5b50565b6000813590506102ee816102c8565b92915050565b60006103076103028461028d565b610272565b9050808382526020820190506020840283018581111561032a576103296102b9565b5b835b81811015610353578061033f88826102df565b84526020840193505060208101905061032c565b5050509392505050565b600082601f830112610372576103716101fc565b5b81356103828482602086016102f4565b91505092915050565b6000602082840312156103a1576103a06101f2565b5b600082013567ffffffffffffffff8111156103bf576103be6101f7565b5b6103cb8482850161035d565b91505092915050565b6103dd816102be565b82525050565b60006020820190506103f860008301846103d4565b92915050565b600060208284031215610414576104136101f2565b5b6000610422848285016102df565b91505092915050565b600080fd5b60008083601f840112610446576104456101fc565b5b8235905067ffffffffffffffff8111156104635761046261042b565b5b60208301915083602082028301111561047f5761047e6102b9565b5b9250929050565b6000806020838503121561049d5761049c6101f2565b5b600083013567ffffffffffffffff8111156104bb576104ba6101f7565b5b6104c785828601610430565b92509250509250929050565b7f4e487b7100000000000000000000000000000000000000000000000000000000600052603260045260246000fd5b7f4e487b7100000000000000000000000000000000000000000000000000000000600052601160045260246000fd5b600061053c826102be565b9150610547836102be565b925082820190508082111561055f5761055e610502565b5b92915050565b6000610570826102be565b91507fffffffffffffffffffffffffffffffffffffffffffffffffffffffffffffffff82036105a2576105a1610502565b5b60018201905091905056fea26469706673582212201aa1dd5bf689929b474d4e4cf2d974cb2de539619c3a99b061073f5126d63c3064736f6c63430008140033",
  "linkReferences": {},
  "deployedLinkReferences": {}
}